{
  "contractName": "VotingSystem",
  "abi": [
    {
      "inputs": [],
      "stateMutability": "nonpayable",
      "type": "constructor"
    },
    {
      "anonymous": false,
      "inputs": [
        {
          "indexed": false,
          "internalType": "address",
          "name": "voter",
          "type": "address"
        },
        {
          "indexed": false,
          "internalType": "uint256",
          "name": "candidateId",
          "type": "uint256"
        }
      ],
      "name": "Voted",
      "type": "event"
    },
    {
      "inputs": [
        {
          "internalType": "uint256",
          "name": "",
          "type": "uint256"
        }
      ],
      "name": "NIKs",
      "outputs": [
        {
          "internalType": "string",
          "name": "",
          "type": "string"
        }
      ],
      "stateMutability": "view",
      "type": "function",
      "constant": true
    },
    {
      "inputs": [],
      "name": "candidateCount",
      "outputs": [
        {
          "internalType": "uint256",
          "name": "",
          "type": "uint256"
        }
      ],
      "stateMutability": "view",
      "type": "function",
      "constant": true
    },
    {
      "inputs": [
        {
          "internalType": "uint256",
          "name": "",
          "type": "uint256"
        }
      ],
      "name": "candidates",
      "outputs": [
        {
          "internalType": "uint256",
          "name": "id",
          "type": "uint256"
        },
        {
          "internalType": "string",
          "name": "name",
          "type": "string"
        },
        {
          "internalType": "uint256",
          "name": "voteCount",
          "type": "uint256"
        }
      ],
      "stateMutability": "view",
      "type": "function",
      "constant": true
    },
    {
      "inputs": [],
      "name": "owner",
      "outputs": [
        {
          "internalType": "address",
          "name": "",
          "type": "address"
        }
      ],
      "stateMutability": "view",
      "type": "function",
      "constant": true
    },
    {
      "inputs": [],
      "name": "voterCount",
      "outputs": [
        {
          "internalType": "uint256",
          "name": "",
          "type": "uint256"
        }
      ],
      "stateMutability": "view",
      "type": "function",
      "constant": true
    },
    {
      "inputs": [
        {
          "internalType": "string",
          "name": "_name",
          "type": "string"
        },
        {
          "internalType": "uint256",
          "name": "_candidateId",
          "type": "uint256"
        }
      ],
      "name": "addCandidate",
      "outputs": [],
      "stateMutability": "nonpayable",
      "type": "function"
    },
    {
      "inputs": [
        {
          "internalType": "string",
          "name": "_NIK",
          "type": "string"
        }
      ],
      "name": "addNIK",
      "outputs": [],
      "stateMutability": "nonpayable",
      "type": "function"
    },
    {
      "inputs": [
        {
          "internalType": "uint256",
          "name": "_candidateId",
          "type": "uint256"
        },
        {
          "internalType": "string",
          "name": "_NIK",
          "type": "string"
        },
        {
          "internalType": "string",
          "name": "_name",
          "type": "string"
        }
      ],
      "name": "vote",
      "outputs": [],
      "stateMutability": "nonpayable",
      "type": "function"
    },
    {
      "inputs": [
        {
          "internalType": "uint256",
          "name": "_candidateId",
          "type": "uint256"
        }
      ],
      "name": "getCandidate",
      "outputs": [
        {
          "internalType": "uint256",
          "name": "",
          "type": "uint256"
        },
        {
          "internalType": "string",
          "name": "",
          "type": "string"
        },
        {
          "internalType": "uint256",
          "name": "",
          "type": "uint256"
        }
      ],
      "stateMutability": "view",
      "type": "function",
      "constant": true
    },
    {
      "inputs": [],
      "name": "getAllCandidates",
      "outputs": [
        {
          "components": [
            {
              "internalType": "uint256",
              "name": "id",
              "type": "uint256"
            },
            {
              "internalType": "string",
              "name": "name",
              "type": "string"
            },
            {
              "internalType": "uint256",
              "name": "voteCount",
              "type": "uint256"
            }
          ],
          "internalType": "struct VotingSystem.Candidate[]",
          "name": "",
          "type": "tuple[]"
        }
      ],
      "stateMutability": "view",
      "type": "function",
      "constant": true
    },
    {
      "inputs": [],
      "name": "getVoter",
      "outputs": [
        {
          "internalType": "bool",
          "name": "",
          "type": "bool"
        },
        {
          "internalType": "uint256",
          "name": "",
          "type": "uint256"
        },
        {
          "internalType": "string",
          "name": "",
          "type": "string"
        }
      ],
      "stateMutability": "view",
      "type": "function",
      "constant": true
    },
    {
      "inputs": [],
      "name": "getAllNIKs",
      "outputs": [
        {
          "internalType": "string[]",
          "name": "",
          "type": "string[]"
        }
      ],
      "stateMutability": "view",
      "type": "function",
      "constant": true
    },
    {
      "inputs": [],
      "name": "getVoterCount",
      "outputs": [
        {
          "internalType": "uint256",
          "name": "",
          "type": "uint256"
        }
      ],
      "stateMutability": "view",
      "type": "function",
      "constant": true
    }
  ],
  "bytecode": "0x608060405234801561001057600080fd5b50336000806101000a81548173ffffffffffffffffffffffffffffffffffffffff021916908373ffffffffffffffffffffffffffffffffffffffff160217905550611f1b806100606000396000f3fe608060405234801561001057600080fd5b50600436106100cf5760003560e01c806342169e481161008c578063b108475911610066578063b10847591461020a578063c813d68a14610226578063c8a0f0c314610256578063e23cec7b14610274576100cf565b806342169e48146101b05780638da5cb5b146101ce578063a9a981a3146101ec576100cf565b80630721957f146100d457806311174a29146100f05780632b37f53c1461010e5780632e6997fe1461012e5780633477ee2e1461014c57806335b8e8201461017e575b600080fd5b6100ee60048036038101906100e99190611220565b610290565b005b6100f861045c565b604051610105919061193b565b60405180910390f35b610116610466565b6040516101259392919061179b565b60405180910390f35b61013661061d565b6040516101439190611779565b60405180910390f35b610166600480360381019061016191906112b5565b6107de565b60405161017593929190611956565b60405180910390f35b610198600480360381019061019391906112b5565b610890565b6040516101a793929190611956565b60405180910390f35b6101b86109cb565b6040516101c5919061193b565b60405180910390f35b6101d66109d1565b6040516101e39190611713565b60405180910390f35b6101f46109f5565b604051610201919061193b565b60405180910390f35b610224600480360381019061021f91906112de565b6109fb565b005b610240600480360381019061023b91906112b5565b610db1565b60405161024d91906117d9565b60405180910390f35b61025e610e5d565b60405161026b9190611757565b60405180910390f35b61028e60048036038101906102899190611261565b610f36565b005b60008054906101000a900473ffffffffffffffffffffffffffffffffffffffff1673ffffffffffffffffffffffffffffffffffffffff163373ffffffffffffffffffffffffffffffffffffffff161461031e576040517f08c379a00000000000000000000000000000000000000000000000000000000081526004016103159061183b565b60405180910390fd5b6000815111610362576040517f08c379a0000000000000000000000000000000000000000000000000000000008152600401610359906117fb565b60405180910390fd5b60058160405161037291906116fc565b908152602001604051809103902060009054906101000a900460ff16156103ce576040517f08c379a00000000000000000000000000000000000000000000000000000000081526004016103c5906118db565b60405180910390fd5b60016005826040516103e091906116fc565b908152602001604051809103902060006101000a81548160ff0219169083151502179055506007819080600181540180825580915050600190039060005260206000200160009091909190915090805190602001906104409291906110df565b506002600081548092919061045490611bb5565b919050555050565b6000600254905090565b60008060606000600460003373ffffffffffffffffffffffffffffffffffffffff1673ffffffffffffffffffffffffffffffffffffffff1681526020019081526020016000206040518060800160405290816000820160009054906101000a900460ff16151515158152602001600182015481526020016002820180546104ec90611b52565b80601f016020809104026020016040519081016040528092919081815260200182805461051890611b52565b80156105655780601f1061053a57610100808354040283529160200191610565565b820191906000526020600020905b81548152906001019060200180831161054857829003601f168201915b5050505050815260200160038201805461057e90611b52565b80601f01602080910402602001604051908101604052809291908181526020018280546105aa90611b52565b80156105f75780601f106105cc576101008083540402835291602001916105f7565b820191906000526020600020905b8154815290600101906020018083116105da57829003601f168201915b505050505081525050905080600001518160200151826040015193509350935050909192565b6060600060015467ffffffffffffffff811115610663577f4e487b7100000000000000000000000000000000000000000000000000000000600052604160045260246000fd5b60405190808252806020026020018201604052801561069c57816020015b610689611165565b8152602001906001900390816106815790505b5090506000600190505b60015481116107d65760036000828152602001908152602001600020604051806060016040529081600082015481526020016001820180546106e790611b52565b80601f016020809104026020016040519081016040528092919081815260200182805461071390611b52565b80156107605780601f1061073557610100808354040283529160200191610760565b820191906000526020600020905b81548152906001019060200180831161074357829003601f168201915b50505050508152602001600282015481525050826001836107819190611a94565b815181106107b8577f4e487b7100000000000000000000000000000000000000000000000000000000600052603260045260246000fd5b602002602001018190525080806107ce90611bb5565b9150506106a6565b508091505090565b600360205280600052604060002060009150905080600001549080600101805461080790611b52565b80601f016020809104026020016040519081016040528092919081815260200182805461083390611b52565b80156108805780601f1061085557610100808354040283529160200191610880565b820191906000526020600020905b81548152906001019060200180831161086357829003601f168201915b5050505050908060020154905083565b60006060600080841180156108a757506001548411155b6108e6576040517f08c379a00000000000000000000000000000000000000000000000000000000081526004016108dd906118fb565b60405180910390fd5b6000600360008681526020019081526020016000206040518060600160405290816000820154815260200160018201805461092090611b52565b80601f016020809104026020016040519081016040528092919081815260200182805461094c90611b52565b80156109995780601f1061096e57610100808354040283529160200191610999565b820191906000526020600020905b81548152906001019060200180831161097c57829003601f168201915b505050505081526020016002820154815250509050806000015181602001518260400151935093509350509193909250565b60025481565b60008054906101000a900473ffffffffffffffffffffffffffffffffffffffff1681565b60015481565b60008054906101000a900473ffffffffffffffffffffffffffffffffffffffff1673ffffffffffffffffffffffffffffffffffffffff163373ffffffffffffffffffffffffffffffffffffffff161415610a8a576040517f08c379a0000000000000000000000000000000000000000000000000000000008152600401610a819061189b565b60405180910390fd5b600460003373ffffffffffffffffffffffffffffffffffffffff1673ffffffffffffffffffffffffffffffffffffffff16815260200190815260200160002060000160009054906101000a900460ff1615610b1a576040517f08c379a0000000000000000000000000000000000000000000000000000000008152600401610b119061191b565b60405180910390fd5b81600581604051610b2b91906116fc565b908152602001604051809103902060009054906101000a900460ff16610b86576040517f08c379a0000000000000000000000000000000000000000000000000000000008152600401610b7d9061187b565b60405180910390fd5b82600681604051610b9791906116fc565b908152602001604051809103902060009054906101000a900460ff1615610bf3576040517f08c379a0000000000000000000000000000000000000000000000000000000008152600401610bea906118bb565b60405180910390fd5b600085118015610c0557506001548511155b610c44576040517f08c379a0000000000000000000000000000000000000000000000000000000008152600401610c3b906118fb565b60405180910390fd5b604051806080016040528060011515815260200186815260200185815260200184815250600460003373ffffffffffffffffffffffffffffffffffffffff1673ffffffffffffffffffffffffffffffffffffffff16815260200190815260200160002060008201518160000160006101000a81548160ff021916908315150217905550602082015181600101556040820151816002019080519060200190610ced9291906110df565b506060820151816003019080519060200190610d0a9291906110df565b50905050600360008681526020019081526020016000206002016000815480929190610d3590611bb5565b91905055506001600685604051610d4c91906116fc565b908152602001604051809103902060006101000a81548160ff0219169083151502179055507f4d99b957a2bc29a30ebd96a7be8e68fe50a3c701db28a91436490b7d53870ca43386604051610da292919061172e565b60405180910390a15050505050565b60078181548110610dc157600080fd5b906000526020600020016000915090508054610ddc90611b52565b80601f0160208091040260200160405190810160405280929190818152602001828054610e0890611b52565b8015610e555780601f10610e2a57610100808354040283529160200191610e55565b820191906000526020600020905b815481529060010190602001808311610e3857829003601f168201915b505050505081565b60606007805480602002602001604051908101604052809291908181526020016000905b82821015610f2d578382906000526020600020018054610ea090611b52565b80601f0160208091040260200160405190810160405280929190818152602001828054610ecc90611b52565b8015610f195780601f10610eee57610100808354040283529160200191610f19565b820191906000526020600020905b815481529060010190602001808311610efc57829003601f168201915b505050505081526020019060010190610e81565b50505050905090565b60008054906101000a900473ffffffffffffffffffffffffffffffffffffffff1673ffffffffffffffffffffffffffffffffffffffff163373ffffffffffffffffffffffffffffffffffffffff1614610fc4576040517f08c379a0000000000000000000000000000000000000000000000000000000008152600401610fbb9061183b565b60405180910390fd5b60008111611007576040517f08c379a0000000000000000000000000000000000000000000000000000000008152600401610ffe9061181b565b60405180910390fd5b6000600360008381526020019081526020016000206000015414611060576040517f08c379a00000000000000000000000000000000000000000000000000000000081526004016110579061185b565b60405180910390fd5b6001600081548092919061107390611bb5565b919050555060405180606001604052808281526020018381526020016000815250600360008381526020019081526020016000206000820151816000015560208201518160010190805190602001906110cd9291906110df565b50604082015181600201559050505050565b8280546110eb90611b52565b90600052602060002090601f01602090048101928261110d5760008555611154565b82601f1061112657805160ff1916838001178555611154565b82800160010185558215611154579182015b82811115611153578251825591602001919060010190611138565b5b5090506111619190611186565b5090565b60405180606001604052806000815260200160608152602001600081525090565b5b8082111561119f576000816000905550600101611187565b5090565b60006111b66111b1846119b9565b611994565b9050828152602081018484840111156111ce57600080fd5b6111d9848285611b10565b509392505050565b600082601f8301126111f257600080fd5b81356112028482602086016111a3565b91505092915050565b60008135905061121a81611ece565b92915050565b60006020828403121561123257600080fd5b600082013567ffffffffffffffff81111561124c57600080fd5b611258848285016111e1565b91505092915050565b6000806040838503121561127457600080fd5b600083013567ffffffffffffffff81111561128e57600080fd5b61129a858286016111e1565b92505060206112ab8582860161120b565b9150509250929050565b6000602082840312156112c757600080fd5b60006112d58482850161120b565b91505092915050565b6000806000606084860312156112f357600080fd5b60006113018682870161120b565b935050602084013567ffffffffffffffff81111561131e57600080fd5b61132a868287016111e1565b925050604084013567ffffffffffffffff81111561134757600080fd5b611353868287016111e1565b9150509250925092565b6000611369838361148d565b905092915050565b600061137d838361168e565b905092915050565b61138e81611ac8565b82525050565b600061139f82611a0a565b6113a98185611a45565b9350836020820285016113bb856119ea565b8060005b858110156113f757848403895281516113d8858261135d565b94506113e383611a2b565b925060208a019950506001810190506113bf565b50829750879550505050505092915050565b600061141482611a15565b61141e8185611a56565b935083602082028501611430856119fa565b8060005b8581101561146c578484038952815161144d8582611371565b945061145883611a38565b925060208a01995050600181019050611434565b50829750879550505050505092915050565b61148781611ada565b82525050565b600061149882611a20565b6114a28185611a67565b93506114b2818560208601611b1f565b6114bb81611c8b565b840191505092915050565b60006114d182611a20565b6114db8185611a78565b93506114eb818560208601611b1f565b6114f481611c8b565b840191505092915050565b600061150a82611a20565b6115148185611a89565b9350611524818560208601611b1f565b80840191505092915050565b600061153d600f83611a78565b915061154882611c9c565b602082019050919050565b6000611560602683611a78565b915061156b82611cc5565b604082019050919050565b6000611583602183611a78565b915061158e82611d14565b604082019050919050565b60006115a6602583611a78565b91506115b182611d63565b604082019050919050565b60006115c9601583611a78565b91506115d482611db2565b602082019050919050565b60006115ec601183611a78565b91506115f782611ddb565b602082019050919050565b600061160f602183611a78565b915061161a82611e04565b604082019050919050565b6000611632601983611a78565b915061163d82611e53565b602082019050919050565b6000611655601483611a78565b915061166082611e7c565b602082019050919050565b6000611678601683611a78565b915061168382611ea5565b602082019050919050565b60006060830160008301516116a660008601826116de565b50602083015184820360208601526116be828261148d565b91505060408301516116d360408601826116de565b508091505092915050565b6116e781611b06565b82525050565b6116f681611b06565b82525050565b600061170882846114ff565b915081905092915050565b60006020820190506117286000830184611385565b92915050565b60006040820190506117436000830185611385565b61175060208301846116ed565b9392505050565b600060208201905081810360008301526117718184611394565b905092915050565b600060208201905081810360008301526117938184611409565b905092915050565b60006060820190506117b0600083018661147e565b6117bd60208301856116ed565b81810360408301526117cf81846114c6565b9050949350505050565b600060208201905081810360008301526117f381846114c6565b905092915050565b6000602082019050818103600083015261181481611530565b9050919050565b6000602082019050818103600083015261183481611553565b9050919050565b6000602082019050818103600083015261185481611576565b9050919050565b6000602082019050818103600083015261187481611599565b9050919050565b60006020820190508181036000830152611894816115bc565b9050919050565b600060208201905081810360008301526118b4816115df565b9050919050565b600060208201905081810360008301526118d481611602565b9050919050565b600060208201905081810360008301526118f481611625565b9050919050565b6000602082019050818103600083015261191481611648565b9050919050565b600060208201905081810360008301526119348161166b565b9050919050565b600060208201905061195060008301846116ed565b92915050565b600060608201905061196b60008301866116ed565b818103602083015261197d81856114c6565b905061198c60408301846116ed565b949350505050565b600061199e6119af565b90506119aa8282611b84565b919050565b6000604051905090565b600067ffffffffffffffff8211156119d4576119d3611c5c565b5b6119dd82611c8b565b9050602081019050919050565b6000819050602082019050919050565b6000819050602082019050919050565b600081519050919050565b600081519050919050565b600081519050919050565b6000602082019050919050565b6000602082019050919050565b600082825260208201905092915050565b600082825260208201905092915050565b600082825260208201905092915050565b600082825260208201905092915050565b600081905092915050565b6000611a9f82611b06565b9150611aaa83611b06565b925082821015611abd57611abc611bfe565b5b828203905092915050565b6000611ad382611ae6565b9050919050565b60008115159050919050565b600073ffffffffffffffffffffffffffffffffffffffff82169050919050565b6000819050919050565b82818337600083830152505050565b60005b83811015611b3d578082015181840152602081019050611b22565b83811115611b4c576000848401525b50505050565b60006002820490506001821680611b6a57607f821691505b60208210811415611b7e57611b7d611c2d565b5b50919050565b611b8d82611c8b565b810181811067ffffffffffffffff82111715611bac57611bab611c5c565b5b80604052505050565b6000611bc082611b06565b91507fffffffffffffffffffffffffffffffffffffffffffffffffffffffffffffffff821415611bf357611bf2611bfe565b5b600182019050919050565b7f4e487b7100000000000000000000000000000000000000000000000000000000600052601160045260246000fd5b7f4e487b7100000000000000000000000000000000000000000000000000000000600052602260045260246000fd5b7f4e487b7100000000000000000000000000000000000000000000000000000000600052604160045260246000fd5b6000601f19601f8301169050919050565b7f4e494b2069732072657175697265640000000000000000000000000000000000600082015250565b7f43616e646964617465204944206d75737420626520677265617465722074686160008201527f6e207a65726f0000000000000000000000000000000000000000000000000000602082015250565b7f4f6e6c79206f776e65722063616e2063616c6c20746869732066756e6374696f60008201527f6e00000000000000000000000000000000000000000000000000000000000000602082015250565b7f43616e6469646174652077697468207468697320494420616c7265616479206560008201527f7869737473000000000000000000000000000000000000000000000000000000602082015250565b7f4e494b206973206e6f7420726567697374657265640000000000000000000000600082015250565b7f4f776e65722063616e6e6f7420766f7465000000000000000000000000000000600082015250565b7f4e494b2068617320616c7265616479206265656e207573656420746f20766f7460008201527f6500000000000000000000000000000000000000000000000000000000000000602082015250565b7f4e494b20697320616c7265616479207265676973746572656400000000000000600082015250565b7f496e76616c69642063616e646964617465204944000000000000000000000000600082015250565b7f596f75206861766520616c726561647920766f74656400000000000000000000600082015250565b611ed781611b06565b8114611ee257600080fd5b5056fea264697066735822122086f9b9255a58b33fa0bd1ecf1102612982c1a559adf5a24d922399e18e4bff9964736f6c63430008040033",
  "immutableReferences": {},
  "source": "// SPDX-License-Identifier: MIT\r\npragma solidity ^0.8.4;\r\n\r\ncontract VotingSystem {\r\n    struct Candidate {\r\n        uint256 id;\r\n        string name;\r\n        uint256 voteCount;\r\n    }\r\n\r\n    struct Voter {\r\n        bool hasVoted;\r\n        uint256 candidateId;\r\n        string NIK;\r\n        string name;\r\n    }\r\n\r\n    address public owner;\r\n    uint256 public candidateCount;\r\n    uint256 public voterCount;\r\n    mapping(uint256 => Candidate) public candidates;\r\n    mapping(address => Voter) private voters;\r\n    mapping(string => bool) private registeredNIKs;\r\n    mapping(string => bool) private usedNIKs;\r\n    string[] public NIKs;\r\n\r\n    event Voted(address voter, uint256 candidateId);\r\n\r\n    modifier onlyOwner() {\r\n        require(msg.sender == owner, \"Only owner can call this function\");\r\n        _;\r\n    }\r\n\r\n    modifier notOwner() {\r\n        require(msg.sender != owner, \"Owner cannot vote\");\r\n        _;\r\n    }\r\n\r\n    modifier hasNotVoted() {\r\n        require(!voters[msg.sender].hasVoted, \"You have already voted\");\r\n        _;\r\n    }\r\n\r\n    modifier validNIK(string memory _NIK) {\r\n        require(registeredNIKs[_NIK], \"NIK is not registered\");\r\n\r\n        _;\r\n    }\r\n\r\n    modifier hasUsedNIK(string memory _NIK) {\r\n        require(!usedNIKs[_NIK],\r\n            \"NIK has already been used to vote\"\r\n        );\r\n        _;\r\n    }\r\n\r\n    constructor() {\r\n        owner = msg.sender;\r\n    }\r\n\r\n    function addCandidate(string memory _name, uint256 _candidateId)\r\n        public\r\n        onlyOwner\r\n    {\r\n        require(_candidateId > 0, \"Candidate ID must be greater than zero\");\r\n        require(\r\n            candidates[_candidateId].id == 0,\r\n            \"Candidate with this ID already exists\"\r\n        );\r\n\r\n        candidateCount++;\r\n        candidates[_candidateId] = Candidate(_candidateId, _name, 0);\r\n    }\r\n\r\n    function addNIK(string memory _NIK) public onlyOwner {\r\n        require(bytes(_NIK).length > 0, \"NIK is required\");\r\n        require(!registeredNIKs[_NIK], \"NIK is already registered\");\r\n        registeredNIKs[_NIK] = true;\r\n        NIKs.push(_NIK);\r\n        voterCount++;\r\n    }\r\n\r\n    function vote(uint256 _candidateId, string memory _NIK, string memory _name)\r\n        public\r\n        notOwner\r\n        hasNotVoted\r\n        validNIK(_NIK)\r\n        hasUsedNIK(_NIK)\r\n    {\r\n        require(\r\n            _candidateId > 0 && _candidateId <= candidateCount,\r\n            \"Invalid candidate ID\"\r\n        );\r\n\r\n        voters[msg.sender] = Voter({\r\n            hasVoted: true,\r\n            candidateId: _candidateId,\r\n            NIK: _NIK,\r\n            name: _name\r\n        });\r\n\r\n        candidates[_candidateId].voteCount++;\r\n        usedNIKs[_NIK] = true;\r\n\r\n        emit Voted(msg.sender, _candidateId);\r\n    }\r\n\r\n    function getCandidate(uint256 _candidateId)\r\n        public\r\n        view\r\n        returns (\r\n            uint256,\r\n            string memory,\r\n            uint256\r\n        )\r\n    {\r\n        require(\r\n            _candidateId > 0 && _candidateId <= candidateCount,\r\n            \"Invalid candidate ID\"\r\n        );\r\n        Candidate memory candidate = candidates[_candidateId];\r\n        return (candidate.id, candidate.name, candidate.voteCount);\r\n    }\r\n\r\n    function getAllCandidates() public view returns (Candidate[] memory) {\r\n        Candidate[] memory candidateList = new Candidate[](candidateCount);\r\n        for (uint256 i = 1; i <= candidateCount; i++) {\r\n            candidateList[i - 1] = candidates[i];\r\n        }\r\n        return candidateList;\r\n    }\r\n\r\n    function getVoter()\r\n        public\r\n        view\r\n        returns (\r\n            bool,\r\n            uint256,\r\n            string memory\r\n        ) \r\n    {\r\n        Voter memory voter = voters[msg.sender];\r\n        return (voter.hasVoted, voter.candidateId, voter.NIK);\r\n    }\r\n\r\n    function getAllNIKs() public view returns (string[] memory) {\r\n        return NIKs;\r\n    }\r\n\r\n    function getVoterCount() public view returns (uint256) {\r\n        return voterCount;\r\n    }\r\n}\r\n",
  "sourcePath": "F:\\1Project\\suaradesamu\\truffle\\contracts\\VotingSystem.sol",
  "compiler": {
    "name": "solc",
    "version": "0.8.4+commit.c7e474f2.Emscripten.clang"
  },
  "schemaVersion": "3.4.16",
  "updatedAt": "2024-06-22T07:35:46.433Z",
  "networkType": "ethereum",
  "devdoc": {
    "kind": "dev",
    "methods": {},
    "version": 1
  },
  "userdoc": {
    "kind": "user",
    "methods": {},
    "version": 1
  }
}