{
  "contractName": "VotingSystem",
  "abi": [
    {
      "inputs": [],
      "stateMutability": "nonpayable",
      "type": "constructor"
    },
    {
      "anonymous": false,
      "inputs": [
        {
          "indexed": false,
          "internalType": "address",
          "name": "voter",
          "type": "address"
        },
        {
          "indexed": false,
          "internalType": "uint256",
          "name": "candidateId",
          "type": "uint256"
        }
      ],
      "name": "Voted",
      "type": "event"
    },
    {
      "inputs": [
        {
          "internalType": "uint256",
          "name": "",
          "type": "uint256"
        }
      ],
      "name": "NIKs",
      "outputs": [
        {
          "internalType": "string",
          "name": "",
          "type": "string"
        }
      ],
      "stateMutability": "view",
      "type": "function",
      "constant": true
    },
    {
      "inputs": [],
      "name": "candidateCount",
      "outputs": [
        {
          "internalType": "uint256",
          "name": "",
          "type": "uint256"
        }
      ],
      "stateMutability": "view",
      "type": "function",
      "constant": true
    },
    {
      "inputs": [
        {
          "internalType": "uint256",
          "name": "",
          "type": "uint256"
        }
      ],
      "name": "candidates",
      "outputs": [
        {
          "internalType": "uint256",
          "name": "id",
          "type": "uint256"
        },
        {
          "internalType": "string",
          "name": "name",
          "type": "string"
        },
        {
          "internalType": "uint256",
          "name": "voteCount",
          "type": "uint256"
        }
      ],
      "stateMutability": "view",
      "type": "function",
      "constant": true
    },
    {
      "inputs": [],
      "name": "owner",
      "outputs": [
        {
          "internalType": "address",
          "name": "",
          "type": "address"
        }
      ],
      "stateMutability": "view",
      "type": "function",
      "constant": true
    },
    {
      "inputs": [],
      "name": "voterCount",
      "outputs": [
        {
          "internalType": "uint256",
          "name": "",
          "type": "uint256"
        }
      ],
      "stateMutability": "view",
      "type": "function",
      "constant": true
    },
    {
      "inputs": [],
      "name": "votesCount",
      "outputs": [
        {
          "internalType": "uint256",
          "name": "",
          "type": "uint256"
        }
      ],
      "stateMutability": "view",
      "type": "function",
      "constant": true
    },
    {
      "inputs": [
        {
          "internalType": "string",
          "name": "_name",
          "type": "string"
        },
        {
          "internalType": "uint256",
          "name": "_candidateId",
          "type": "uint256"
        }
      ],
      "name": "addCandidate",
      "outputs": [],
      "stateMutability": "nonpayable",
      "type": "function"
    },
    {
      "inputs": [
        {
          "internalType": "string",
          "name": "_NIK",
          "type": "string"
        }
      ],
      "name": "checkIfNIKNotRegistered",
      "outputs": [],
      "stateMutability": "nonpayable",
      "type": "function"
    },
    {
      "inputs": [
        {
          "internalType": "string",
          "name": "_NIK",
          "type": "string"
        }
      ],
      "name": "checkIfNIKRegistered",
      "outputs": [],
      "stateMutability": "nonpayable",
      "type": "function"
    },
    {
      "inputs": [
        {
          "internalType": "uint256",
          "name": "_candidateId",
          "type": "uint256"
        }
      ],
      "name": "checkIfCandidateValid",
      "outputs": [],
      "stateMutability": "nonpayable",
      "type": "function"
    },
    {
      "inputs": [
        {
          "internalType": "string",
          "name": "_NIK",
          "type": "string"
        }
      ],
      "name": "addNIK",
      "outputs": [],
      "stateMutability": "nonpayable",
      "type": "function"
    },
    {
      "inputs": [
        {
          "internalType": "string",
          "name": "_NIK",
          "type": "string"
        }
      ],
      "name": "removeNIK",
      "outputs": [],
      "stateMutability": "nonpayable",
      "type": "function"
    },
    {
      "inputs": [
        {
          "internalType": "uint256",
          "name": "_candidateId",
          "type": "uint256"
        },
        {
          "internalType": "string",
          "name": "_NIK",
          "type": "string"
        }
      ],
      "name": "vote",
      "outputs": [],
      "stateMutability": "nonpayable",
      "type": "function"
    },
    {
      "inputs": [
        {
          "internalType": "uint256",
          "name": "_candidateId",
          "type": "uint256"
        }
      ],
      "name": "getCandidate",
      "outputs": [
        {
          "internalType": "uint256",
          "name": "",
          "type": "uint256"
        },
        {
          "internalType": "string",
          "name": "",
          "type": "string"
        },
        {
          "internalType": "uint256",
          "name": "",
          "type": "uint256"
        }
      ],
      "stateMutability": "view",
      "type": "function",
      "constant": true
    },
    {
      "inputs": [],
      "name": "getAllCandidates",
      "outputs": [
        {
          "components": [
            {
              "internalType": "uint256",
              "name": "id",
              "type": "uint256"
            },
            {
              "internalType": "string",
              "name": "name",
              "type": "string"
            },
            {
              "internalType": "uint256",
              "name": "voteCount",
              "type": "uint256"
            }
          ],
          "internalType": "struct VotingSystem.Candidate[]",
          "name": "",
          "type": "tuple[]"
        }
      ],
      "stateMutability": "view",
      "type": "function",
      "constant": true
    },
    {
      "inputs": [],
      "name": "getVoter",
      "outputs": [
        {
          "internalType": "bool",
          "name": "",
          "type": "bool"
        },
        {
          "internalType": "uint256",
          "name": "",
          "type": "uint256"
        },
        {
          "internalType": "string",
          "name": "",
          "type": "string"
        }
      ],
      "stateMutability": "view",
      "type": "function",
      "constant": true
    },
    {
      "inputs": [],
      "name": "getAllNIKs",
      "outputs": [
        {
          "internalType": "string[]",
          "name": "",
          "type": "string[]"
        }
      ],
      "stateMutability": "view",
      "type": "function",
      "constant": true
    },
    {
      "inputs": [],
      "name": "getVoterCount",
      "outputs": [
        {
          "internalType": "uint256",
          "name": "",
          "type": "uint256"
        }
      ],
      "stateMutability": "view",
      "type": "function",
      "constant": true
    }
  ],
  "bytecode": "0x608060405234801561001057600080fd5b50336000806101000a81548173ffffffffffffffffffffffffffffffffffffffff021916908373ffffffffffffffffffffffffffffffffffffffff160217905550612683806100606000396000f3fe608060405234801561001057600080fd5b50600436106101165760003560e01c80638778b27d116100a2578063c813d68a11610071578063c813d68a146102c3578063c8a0f0c3146102f3578063c8bb860814610311578063e23cec7b1461032d578063f74eafe31461034957610116565b80638778b27d1461024d5780638da5cb5b1461026b578063a9a981a314610289578063ae1b512a146102a757610116565b80632b37f53c116100e95780632b37f53c1461018d5780632e6997fe146101ad5780633477ee2e146101cb57806335b8e820146101fd57806342169e481461022f57610116565b806303e5e56d1461011b5780630721957f1461013757806311174a29146101535780632410847514610171575b600080fd5b610135600480360381019061013091906117e0565b610365565b005b610151600480360381019061014c91906117e0565b6106e7565b005b61015b6108b3565b6040516101689190611fec565b60405180910390f35b61018b6004803603810190610186919061189e565b6108bd565b005b610195610c67565b6040516101a493929190611e0c565b60405180910390f35b6101b5610d8c565b6040516101c29190611dea565b60405180910390f35b6101e560048036038101906101e09190611875565b610f4d565b6040516101f493929190612007565b60405180910390f35b61021760048036038101906102129190611875565b610fff565b60405161022693929190612007565b60405180910390f35b61023761112c565b6040516102449190611fec565b60405180910390f35b610255611132565b6040516102629190611fec565b60405180910390f35b610273611138565b6040516102809190611d84565b60405180910390f35b61029161115c565b60405161029e9190611fec565b60405180910390f35b6102c160048036038101906102bc91906117e0565b611162565b005b6102dd60048036038101906102d89190611875565b6111d2565b6040516102ea9190611e4a565b60405180910390f35b6102fb61127e565b6040516103089190611dc8565b60405180910390f35b61032b60048036038101906103269190611875565b611357565b005b61034760048036038101906103429190611821565b6113b6565b005b610363600480360381019061035e91906117e0565b611561565b005b60008054906101000a900473ffffffffffffffffffffffffffffffffffffffff1673ffffffffffffffffffffffffffffffffffffffff163373ffffffffffffffffffffffffffffffffffffffff16146103f3576040517f08c379a00000000000000000000000000000000000000000000000000000000081526004016103ea90611ecc565b60405180910390fd5b806007816040516104049190611d56565b908152602001604051809103902060009054906101000a900460ff1615610460576040517f08c379a000000000000000000000000000000000000000000000000000000000815260040161045790611f6c565b60405180910390fd5b816006816040516104719190611d56565b908152602001604051809103902060009054906101000a900460ff166104cc576040517f08c379a00000000000000000000000000000000000000000000000000000000081526004016104c390611f2c565b60405180910390fd5b60006006846040516104de9190611d56565b908152602001604051809103902060006101000a81548160ff02191690831515021790555060005b6008805490508110156106e157836040516020016105249190611d56565b6040516020818303038152906040528051906020012060088281548110610574577f4e487b7100000000000000000000000000000000000000000000000000000000600052603260045260246000fd5b9060005260206000200160405160200161058e9190611d6d565b6040516020818303038152906040528051906020012014156106ce57600860016008805490506105be919061215a565b815481106105f5577f4e487b7100000000000000000000000000000000000000000000000000000000600052603260045260246000fd5b9060005260206000200160088281548110610639577f4e487b7100000000000000000000000000000000000000000000000000000000600052603260045260246000fd5b9060005260206000200190805461064f90612242565b61065a9291906115d2565b506008805480610693577f4e487b7100000000000000000000000000000000000000000000000000000000600052603160045260246000fd5b6001900381819060005260206000200160006106af919061165f565b9055600260008154809291906106c490612218565b91905055506106e1565b80806106d9906122a5565b915050610506565b50505050565b60008054906101000a900473ffffffffffffffffffffffffffffffffffffffff1673ffffffffffffffffffffffffffffffffffffffff163373ffffffffffffffffffffffffffffffffffffffff1614610775576040517f08c379a000000000000000000000000000000000000000000000000000000000815260040161076c90611ecc565b60405180910390fd5b60008151116107b9576040517f08c379a00000000000000000000000000000000000000000000000000000000081526004016107b090611e6c565b60405180910390fd5b6006816040516107c99190611d56565b908152602001604051809103902060009054906101000a900460ff1615610825576040517f08c379a000000000000000000000000000000000000000000000000000000000815260040161081c90611f8c565b60405180910390fd5b60016006826040516108379190611d56565b908152602001604051809103902060006101000a81548160ff02191690831515021790555060088190806001815401808255809150506001900390600052602060002001600090919091909150908051906020019061089792919061169f565b50600260008154809291906108ab906122a5565b919050555050565b6000600254905090565b60008054906101000a900473ffffffffffffffffffffffffffffffffffffffff1673ffffffffffffffffffffffffffffffffffffffff163373ffffffffffffffffffffffffffffffffffffffff16141561094c576040517f08c379a000000000000000000000000000000000000000000000000000000000815260040161094390611f4c565b60405180910390fd5b600560003373ffffffffffffffffffffffffffffffffffffffff1673ffffffffffffffffffffffffffffffffffffffff16815260200190815260200160002060000160009054906101000a900460ff16156109dc576040517f08c379a00000000000000000000000000000000000000000000000000000000081526004016109d390611fcc565b60405180910390fd5b806006816040516109ed9190611d56565b908152602001604051809103902060009054906101000a900460ff16610a48576040517f08c379a0000000000000000000000000000000000000000000000000000000008152600401610a3f90611f2c565b60405180910390fd5b81600781604051610a599190611d56565b908152602001604051809103902060009054906101000a900460ff1615610ab5576040517f08c379a0000000000000000000000000000000000000000000000000000000008152600401610aac90611f6c565b60405180910390fd5b600084118015610ac757506001548411155b610b06576040517f08c379a0000000000000000000000000000000000000000000000000000000008152600401610afd90611fac565b60405180910390fd5b604051806060016040528060011515815260200185815260200184815250600560003373ffffffffffffffffffffffffffffffffffffffff1673ffffffffffffffffffffffffffffffffffffffff16815260200190815260200160002060008201518160000160006101000a81548160ff021916908315150217905550602082015181600101556040820151816002019080519060200190610ba992919061169f565b50905050600460008581526020019081526020016000206002016000815480929190610bd4906122a5565b91905055506001600784604051610beb9190611d56565b908152602001604051809103902060006101000a81548160ff02191690831515021790555060036000815480929190610c23906122a5565b91905055507f4d99b957a2bc29a30ebd96a7be8e68fe50a3c701db28a91436490b7d53870ca43385604051610c59929190611d9f565b60405180910390a150505050565b60008060606000600560003373ffffffffffffffffffffffffffffffffffffffff1673ffffffffffffffffffffffffffffffffffffffff1681526020019081526020016000206040518060600160405290816000820160009054906101000a900460ff1615151515815260200160018201548152602001600282018054610ced90612242565b80601f0160208091040260200160405190810160405280929190818152602001828054610d1990612242565b8015610d665780601f10610d3b57610100808354040283529160200191610d66565b820191906000526020600020905b815481529060010190602001808311610d4957829003601f168201915b505050505081525050905080600001518160200151826040015193509350935050909192565b6060600060015467ffffffffffffffff811115610dd2577f4e487b7100000000000000000000000000000000000000000000000000000000600052604160045260246000fd5b604051908082528060200260200182016040528015610e0b57816020015b610df8611725565b815260200190600190039081610df05790505b5090506000600190505b6001548111610f45576004600082815260200190815260200160002060405180606001604052908160008201548152602001600182018054610e5690612242565b80601f0160208091040260200160405190810160405280929190818152602001828054610e8290612242565b8015610ecf5780601f10610ea457610100808354040283529160200191610ecf565b820191906000526020600020905b815481529060010190602001808311610eb257829003601f168201915b5050505050815260200160028201548152505082600183610ef0919061215a565b81518110610f27577f4e487b7100000000000000000000000000000000000000000000000000000000600052603260045260246000fd5b60200260200101819052508080610f3d906122a5565b915050610e15565b508091505090565b6004602052806000526040600020600091509050806000015490806001018054610f7690612242565b80601f0160208091040260200160405190810160405280929190818152602001828054610fa290612242565b8015610fef5780601f10610fc457610100808354040283529160200191610fef565b820191906000526020600020905b815481529060010190602001808311610fd257829003601f168201915b5050505050908060020154905083565b600060606000808411611047576040517f08c379a000000000000000000000000000000000000000000000000000000000815260040161103e90611fac565b60405180910390fd5b6000600460008681526020019081526020016000206040518060600160405290816000820154815260200160018201805461108190612242565b80601f01602080910402602001604051908101604052809291908181526020018280546110ad90612242565b80156110fa5780601f106110cf576101008083540402835291602001916110fa565b820191906000526020600020905b8154815290600101906020018083116110dd57829003601f168201915b505050505081526020016002820154815250509050806000015181602001518260400151935093509350509193909250565b60025481565b60035481565b60008054906101000a900473ffffffffffffffffffffffffffffffffffffffff1681565b60015481565b806006816040516111739190611d56565b908152602001604051809103902060009054906101000a900460ff166111ce576040517f08c379a00000000000000000000000000000000000000000000000000000000081526004016111c590611f2c565b60405180910390fd5b5050565b600881815481106111e257600080fd5b9060005260206000200160009150905080546111fd90612242565b80601f016020809104026020016040519081016040528092919081815260200182805461122990612242565b80156112765780601f1061124b57610100808354040283529160200191611276565b820191906000526020600020905b81548152906001019060200180831161125957829003601f168201915b505050505081565b60606008805480602002602001604051908101604052809291908181526020016000905b8282101561134e5783829060005260206000200180546112c190612242565b80601f01602080910402602001604051908101604052809291908181526020018280546112ed90612242565b801561133a5780601f1061130f5761010080835404028352916020019161133a565b820191906000526020600020905b81548152906001019060200180831161131d57829003601f168201915b5050505050815260200190600101906112a2565b50505050905090565b806000600460008381526020019081526020016000206000015414156113b2576040517f08c379a00000000000000000000000000000000000000000000000000000000081526004016113a990611eac565b60405180910390fd5b5050565b60008054906101000a900473ffffffffffffffffffffffffffffffffffffffff1673ffffffffffffffffffffffffffffffffffffffff163373ffffffffffffffffffffffffffffffffffffffff1614611444576040517f08c379a000000000000000000000000000000000000000000000000000000000815260040161143b90611ecc565b60405180910390fd5b8060008111611488576040517f08c379a000000000000000000000000000000000000000000000000000000000815260040161147f90611e8c565b60405180910390fd5b60006004600083815260200190815260200160002060000154146114e1576040517f08c379a00000000000000000000000000000000000000000000000000000000081526004016114d890611eec565b60405180910390fd5b604051806060016040528083815260200184815260200160008152506004600084815260200190815260200160002060008201518160000155602082015181600101908051906020019061153692919061169f565b506040820151816002015590505060016000815480929190611557906122a5565b9190505550505050565b806006816040516115729190611d56565b908152602001604051809103902060009054906101000a900460ff16156115ce576040517f08c379a00000000000000000000000000000000000000000000000000000000081526004016115c590611f0c565b60405180910390fd5b5050565b8280546115de90612242565b90600052602060002090601f016020900481019282611600576000855561164e565b82601f10611611578054855561164e565b8280016001018555821561164e57600052602060002091601f016020900482015b8281111561164d578254825591600101919060010190611632565b5b50905061165b9190611746565b5090565b50805461166b90612242565b6000825580601f1061167d575061169c565b601f01602090049060005260206000209081019061169b9190611746565b5b50565b8280546116ab90612242565b90600052602060002090601f0160209004810192826116cd5760008555611714565b82601f106116e657805160ff1916838001178555611714565b82800160010185558215611714579182015b828111156117135782518255916020019190600101906116f8565b5b5090506117219190611746565b5090565b60405180606001604052806000815260200160608152602001600081525090565b5b8082111561175f576000816000905550600101611747565b5090565b60006117766117718461206a565b612045565b90508281526020810184848401111561178e57600080fd5b6117998482856121d6565b509392505050565b600082601f8301126117b257600080fd5b81356117c2848260208601611763565b91505092915050565b6000813590506117da81612636565b92915050565b6000602082840312156117f257600080fd5b600082013567ffffffffffffffff81111561180c57600080fd5b611818848285016117a1565b91505092915050565b6000806040838503121561183457600080fd5b600083013567ffffffffffffffff81111561184e57600080fd5b61185a858286016117a1565b925050602061186b858286016117cb565b9150509250929050565b60006020828403121561188757600080fd5b6000611895848285016117cb565b91505092915050565b600080604083850312156118b157600080fd5b60006118bf858286016117cb565b925050602083013567ffffffffffffffff8111156118dc57600080fd5b6118e8858286016117a1565b9150509250929050565b60006118fe8383611a22565b905092915050565b60006119128383611ce8565b905092915050565b6119238161218e565b82525050565b6000611934826120d0565b61193e818561210b565b9350836020820285016119508561209b565b8060005b8581101561198c578484038952815161196d85826118f2565b9450611978836120f1565b925060208a01995050600181019050611954565b50829750879550505050505092915050565b60006119a9826120db565b6119b3818561211c565b9350836020820285016119c5856120ab565b8060005b85811015611a0157848403895281516119e28582611906565b94506119ed836120fe565b925060208a019950506001810190506119c9565b50829750879550505050505092915050565b611a1c816121a0565b82525050565b6000611a2d826120e6565b611a37818561212d565b9350611a478185602086016121e5565b611a508161237b565b840191505092915050565b6000611a66826120e6565b611a70818561213e565b9350611a808185602086016121e5565b611a898161237b565b840191505092915050565b6000611a9f826120e6565b611aa9818561214f565b9350611ab98185602086016121e5565b80840191505092915050565b60008154611ad281612242565b611adc818661214f565b94506001821660008114611af75760018114611b0857611b3b565b60ff19831686528186019350611b3b565b611b11856120bb565b60005b83811015611b3357815481890152600182019150602081019050611b14565b838801955050505b50505092915050565b6000611b51600f8361213e565b9150611b5c8261238c565b602082019050919050565b6000611b7460268361213e565b9150611b7f826123b5565b604082019050919050565b6000611b9760248361213e565b9150611ba282612404565b604082019050919050565b6000611bba60218361213e565b9150611bc582612453565b604082019050919050565b6000611bdd60258361213e565b9150611be8826124a2565b604082019050919050565b6000611c0060118361213e565b9150611c0b826124f1565b602082019050919050565b6000611c2360158361213e565b9150611c2e8261251a565b602082019050919050565b6000611c4660118361213e565b9150611c5182612543565b602082019050919050565b6000611c6960218361213e565b9150611c748261256c565b604082019050919050565b6000611c8c60198361213e565b9150611c97826125bb565b602082019050919050565b6000611caf60148361213e565b9150611cba826125e4565b602082019050919050565b6000611cd260168361213e565b9150611cdd8261260d565b602082019050919050565b6000606083016000830151611d006000860182611d38565b5060208301518482036020860152611d188282611a22565b9150506040830151611d2d6040860182611d38565b508091505092915050565b611d41816121cc565b82525050565b611d50816121cc565b82525050565b6000611d628284611a94565b915081905092915050565b6000611d798284611ac5565b915081905092915050565b6000602082019050611d99600083018461191a565b92915050565b6000604082019050611db4600083018561191a565b611dc16020830184611d47565b9392505050565b60006020820190508181036000830152611de28184611929565b905092915050565b60006020820190508181036000830152611e04818461199e565b905092915050565b6000606082019050611e216000830186611a13565b611e2e6020830185611d47565b8181036040830152611e408184611a5b565b9050949350505050565b60006020820190508181036000830152611e648184611a5b565b905092915050565b60006020820190508181036000830152611e8581611b44565b9050919050565b60006020820190508181036000830152611ea581611b67565b9050919050565b60006020820190508181036000830152611ec581611b8a565b9050919050565b60006020820190508181036000830152611ee581611bad565b9050919050565b60006020820190508181036000830152611f0581611bd0565b9050919050565b60006020820190508181036000830152611f2581611bf3565b9050919050565b60006020820190508181036000830152611f4581611c16565b9050919050565b60006020820190508181036000830152611f6581611c39565b9050919050565b60006020820190508181036000830152611f8581611c5c565b9050919050565b60006020820190508181036000830152611fa581611c7f565b9050919050565b60006020820190508181036000830152611fc581611ca2565b9050919050565b60006020820190508181036000830152611fe581611cc5565b9050919050565b60006020820190506120016000830184611d47565b92915050565b600060608201905061201c6000830186611d47565b818103602083015261202e8185611a5b565b905061203d6040830184611d47565b949350505050565b600061204f612060565b905061205b8282612274565b919050565b6000604051905090565b600067ffffffffffffffff8211156120855761208461234c565b5b61208e8261237b565b9050602081019050919050565b6000819050602082019050919050565b6000819050602082019050919050565b60008190508160005260206000209050919050565b600081519050919050565b600081519050919050565b600081519050919050565b6000602082019050919050565b6000602082019050919050565b600082825260208201905092915050565b600082825260208201905092915050565b600082825260208201905092915050565b600082825260208201905092915050565b600081905092915050565b6000612165826121cc565b9150612170836121cc565b925082821015612183576121826122ee565b5b828203905092915050565b6000612199826121ac565b9050919050565b60008115159050919050565b600073ffffffffffffffffffffffffffffffffffffffff82169050919050565b6000819050919050565b82818337600083830152505050565b60005b838110156122035780820151818401526020810190506121e8565b83811115612212576000848401525b50505050565b6000612223826121cc565b91506000821415612237576122366122ee565b5b600182039050919050565b6000600282049050600182168061225a57607f821691505b6020821081141561226e5761226d61231d565b5b50919050565b61227d8261237b565b810181811067ffffffffffffffff8211171561229c5761229b61234c565b5b80604052505050565b60006122b0826121cc565b91507fffffffffffffffffffffffffffffffffffffffffffffffffffffffffffffffff8214156122e3576122e26122ee565b5b600182019050919050565b7f4e487b7100000000000000000000000000000000000000000000000000000000600052601160045260246000fd5b7f4e487b7100000000000000000000000000000000000000000000000000000000600052602260045260246000fd5b7f4e487b7100000000000000000000000000000000000000000000000000000000600052604160045260246000fd5b6000601f19601f8301169050919050565b7f4e494b2069732072657175697265640000000000000000000000000000000000600082015250565b7f43616e646964617465204944206d75737420626520677265617465722074686160008201527f6e207a65726f0000000000000000000000000000000000000000000000000000602082015250565b7f43616e64696461746520776974682074686973204944206973206e6f7420657860008201527f6973747300000000000000000000000000000000000000000000000000000000602082015250565b7f4f6e6c79206f776e65722063616e2063616c6c20746869732066756e6374696f60008201527f6e00000000000000000000000000000000000000000000000000000000000000602082015250565b7f43616e6469646174652077697468207468697320494420616c7265616479206560008201527f7869737473000000000000000000000000000000000000000000000000000000602082015250565b7f4e494b2069732072656769737465726564000000000000000000000000000000600082015250565b7f4e494b206973206e6f7420726567697374657265640000000000000000000000600082015250565b7f4f776e65722063616e6e6f7420766f7465000000000000000000000000000000600082015250565b7f4e494b2068617320616c7265616479206265656e207573656420746f20766f7460008201527f6500000000000000000000000000000000000000000000000000000000000000602082015250565b7f4e494b20697320616c7265616479207265676973746572656400000000000000600082015250565b7f496e76616c69642063616e646964617465204944000000000000000000000000600082015250565b7f596f75206861766520616c726561647920766f74656400000000000000000000600082015250565b61263f816121cc565b811461264a57600080fd5b5056fea264697066735822122056fea31c5495e4c566a813792cd2c8b4f3e74ababd47746ee2f53a803702ac2564736f6c63430008040033",
  "immutableReferences": {},
  "source": "// SPDX-License-Identifier: MIT\r\npragma solidity ^0.8.4;\r\n\r\ncontract VotingSystem {\r\n    struct Candidate {\r\n        uint256 id;\r\n        string name;\r\n        uint256 voteCount;\r\n    }\r\n\r\n    struct Voter {\r\n        bool hasVoted;\r\n        uint256 candidateId;\r\n        string NIK;\r\n    }\r\n\r\n    address public owner;\r\n    uint256 public candidateCount;\r\n    uint256 public voterCount;\r\n    uint public votesCount;\r\n    mapping(uint256 => Candidate) public candidates;\r\n    mapping(address => Voter) private voters;\r\n    mapping(string => bool) private registeredNIKs;\r\n    mapping(string => bool) private usedNIKs;\r\n    string[] public NIKs;\r\n\r\n    event Voted(address voter, uint256 candidateId);\r\n\r\n    modifier onlyOwner() {\r\n        require(msg.sender == owner, \"Only owner can call this function\");\r\n        _;\r\n    }\r\n\r\n    modifier notOwner() {\r\n        require(msg.sender != owner, \"Owner cannot vote\");\r\n        _;\r\n    }\r\n\r\n    modifier hasNotVoted() {\r\n        require(!voters[msg.sender].hasVoted, \"You have already voted\");\r\n        _;\r\n    }\r\n\r\n    modifier validNIK(string memory _NIK) {\r\n        require(registeredNIKs[_NIK], \"NIK is not registered\");\r\n        _;\r\n    }\r\n    modifier isNIKExist(string memory _NIK){\r\n        require(!registeredNIKs[_NIK], \"NIK is registered\");\r\n        _;\r\n    }\r\n\r\n    modifier hasUsedNIK(string memory _NIK) {\r\n        require(!usedNIKs[_NIK],\r\n            \"NIK has already been used to vote\"\r\n        );\r\n        _;\r\n    }\r\n    modifier validCandidate(uint256 _candidateId){\r\n        require(_candidateId > 0, \"Candidate ID must be greater than zero\");\r\n        require(\r\n            candidates[_candidateId].id == 0,\r\n            \"Candidate with this ID already exists\"\r\n        );\r\n        _;\r\n    }\r\n    modifier isCandidateExist(uint256 _candidateId){\r\n        require(\r\n            candidates[_candidateId].id != 0,\r\n            \"Candidate with this ID is not exists\"\r\n        );\r\n        _;\r\n    }\r\n    constructor() {\r\n        owner = msg.sender;\r\n    }\r\n\r\n    function addCandidate(string memory _name, uint256 _candidateId)\r\n        public\r\n        onlyOwner\r\n        validCandidate(_candidateId)\r\n    {\r\n        candidates[_candidateId] = Candidate(_candidateId, _name, 0);\r\n        candidateCount++;\r\n    }\r\n\r\n    function checkIfNIKNotRegistered(string memory _NIK )public isNIKExist(_NIK){\r\n        \r\n    }\r\n    function checkIfNIKRegistered(string memory _NIK )public validNIK(_NIK){\r\n        \r\n    }\r\n\r\n    function checkIfCandidateValid(uint256 _candidateId)public isCandidateExist(_candidateId){\r\n        \r\n    }\r\n\r\n    function addNIK(string memory _NIK) public onlyOwner {\r\n        require(bytes(_NIK).length > 0, \"NIK is required\");\r\n        require(!registeredNIKs[_NIK], \"NIK is already registered\");\r\n        registeredNIKs[_NIK] = true;\r\n        NIKs.push(_NIK);\r\n        voterCount++;\r\n    }\r\n\r\n    function removeNIK(string memory _NIK) public onlyOwner hasUsedNIK(_NIK) validNIK(_NIK) {\r\n        registeredNIKs[_NIK] = false;\r\n\r\n        for (uint256 i = 0; i < NIKs.length; i++) {\r\n            if (keccak256(abi.encodePacked(NIKs[i])) == keccak256(abi.encodePacked(_NIK))) {\r\n                NIKs[i] = NIKs[NIKs.length - 1];\r\n                NIKs.pop();\r\n                voterCount--;\r\n                break;\r\n            }\r\n        }\r\n    }\r\n\r\n    function vote(uint256 _candidateId, string memory _NIK)\r\n        public\r\n        notOwner\r\n        hasNotVoted\r\n        validNIK(_NIK)\r\n        hasUsedNIK(_NIK)\r\n    {\r\n        require(\r\n            _candidateId > 0 && _candidateId <= candidateCount,\r\n            \"Invalid candidate ID\"\r\n        );\r\n\r\n        voters[msg.sender] = Voter({\r\n            hasVoted: true,\r\n            candidateId: _candidateId,\r\n            NIK: _NIK\r\n        });\r\n\r\n        candidates[_candidateId].voteCount++;\r\n        usedNIKs[_NIK] = true;\r\n        votesCount++;\r\n        emit Voted(msg.sender, _candidateId);\r\n    }\r\n\r\n    function getCandidate(uint256 _candidateId)\r\n        public\r\n        view\r\n        returns (\r\n            uint256,\r\n            string memory,\r\n            uint256\r\n        )\r\n    {\r\n        require(\r\n            _candidateId > 0,\r\n            \"Invalid candidate ID\"\r\n        );\r\n        Candidate memory candidate = candidates[_candidateId];\r\n        return (candidate.id, candidate.name, candidate.voteCount);\r\n    }\r\n\r\n    function getAllCandidates() public view returns (Candidate[] memory) {\r\n        Candidate[] memory candidateList = new Candidate[](candidateCount);\r\n        for (uint256 i = 1; i <= candidateCount; i++) {\r\n            candidateList[i - 1] = candidates[i];\r\n        }\r\n        return candidateList;\r\n    }\r\n\r\n    function getVoter()\r\n        public\r\n        view\r\n        returns (\r\n            bool,\r\n            uint256,\r\n            string memory\r\n        ) \r\n    {\r\n        Voter memory voter = voters[msg.sender];\r\n        return (voter.hasVoted, voter.candidateId, voter.NIK);\r\n    }\r\n\r\n    function getAllNIKs() public view returns (string[] memory) {\r\n        return NIKs;\r\n    }\r\n\r\n    function getVoterCount() public view returns (uint256) {\r\n        return voterCount;\r\n    }\r\n}\r\n",
  "sourcePath": "F:\\1Project\\suaradesamu\\truffle\\contracts\\VotingSystem.sol",
  "compiler": {
    "name": "solc",
    "version": "0.8.4+commit.c7e474f2.Emscripten.clang"
  },
  "schemaVersion": "3.4.16",
  "updatedAt": "2024-06-24T16:17:06.649Z",
  "networkType": "ethereum",
  "devdoc": {
    "kind": "dev",
    "methods": {},
    "version": 1
  },
  "userdoc": {
    "kind": "user",
    "methods": {},
    "version": 1
  }
}