{
  "contractName": "VotingSystem",
  "abi": [
    {
      "inputs": [],
      "stateMutability": "nonpayable",
      "type": "constructor"
    },
    {
      "anonymous": false,
      "inputs": [
        {
          "indexed": false,
          "internalType": "address",
          "name": "voter",
          "type": "address"
        },
        {
          "indexed": false,
          "internalType": "uint256",
          "name": "candidateId",
          "type": "uint256"
        }
      ],
      "name": "Voted",
      "type": "event"
    },
    {
      "inputs": [
        {
          "internalType": "uint256",
          "name": "",
          "type": "uint256"
        }
      ],
      "name": "NIKs",
      "outputs": [
        {
          "internalType": "string",
          "name": "",
          "type": "string"
        }
      ],
      "stateMutability": "view",
      "type": "function",
      "constant": true
    },
    {
      "inputs": [],
      "name": "candidateCount",
      "outputs": [
        {
          "internalType": "uint256",
          "name": "",
          "type": "uint256"
        }
      ],
      "stateMutability": "view",
      "type": "function",
      "constant": true
    },
    {
      "inputs": [
        {
          "internalType": "uint256",
          "name": "",
          "type": "uint256"
        }
      ],
      "name": "candidates",
      "outputs": [
        {
          "internalType": "uint256",
          "name": "id",
          "type": "uint256"
        },
        {
          "internalType": "string",
          "name": "name",
          "type": "string"
        },
        {
          "internalType": "uint256",
          "name": "voteCount",
          "type": "uint256"
        }
      ],
      "stateMutability": "view",
      "type": "function",
      "constant": true
    },
    {
      "inputs": [],
      "name": "owner",
      "outputs": [
        {
          "internalType": "address",
          "name": "",
          "type": "address"
        }
      ],
      "stateMutability": "view",
      "type": "function",
      "constant": true
    },
    {
      "inputs": [],
      "name": "voterCount",
      "outputs": [
        {
          "internalType": "uint256",
          "name": "",
          "type": "uint256"
        }
      ],
      "stateMutability": "view",
      "type": "function",
      "constant": true
    },
    {
      "inputs": [
        {
          "internalType": "string",
          "name": "_name",
          "type": "string"
        },
        {
          "internalType": "uint256",
          "name": "_candidateId",
          "type": "uint256"
        }
      ],
      "name": "addCandidate",
      "outputs": [],
      "stateMutability": "nonpayable",
      "type": "function"
    },
    {
      "inputs": [
        {
          "internalType": "string",
          "name": "_NIK",
          "type": "string"
        }
      ],
      "name": "addNIK",
      "outputs": [],
      "stateMutability": "nonpayable",
      "type": "function"
    },
    {
      "inputs": [
        {
          "internalType": "uint256",
          "name": "_candidateId",
          "type": "uint256"
        },
        {
          "internalType": "string",
          "name": "_NIK",
          "type": "string"
        }
      ],
      "name": "vote",
      "outputs": [],
      "stateMutability": "nonpayable",
      "type": "function"
    },
    {
      "inputs": [
        {
          "internalType": "uint256",
          "name": "_candidateId",
          "type": "uint256"
        }
      ],
      "name": "getCandidate",
      "outputs": [
        {
          "internalType": "uint256",
          "name": "",
          "type": "uint256"
        },
        {
          "internalType": "string",
          "name": "",
          "type": "string"
        },
        {
          "internalType": "uint256",
          "name": "",
          "type": "uint256"
        }
      ],
      "stateMutability": "view",
      "type": "function",
      "constant": true
    },
    {
      "inputs": [],
      "name": "getAllCandidates",
      "outputs": [
        {
          "components": [
            {
              "internalType": "uint256",
              "name": "id",
              "type": "uint256"
            },
            {
              "internalType": "string",
              "name": "name",
              "type": "string"
            },
            {
              "internalType": "uint256",
              "name": "voteCount",
              "type": "uint256"
            }
          ],
          "internalType": "struct VotingSystem.Candidate[]",
          "name": "",
          "type": "tuple[]"
        }
      ],
      "stateMutability": "view",
      "type": "function",
      "constant": true
    },
    {
      "inputs": [],
      "name": "getVoter",
      "outputs": [
        {
          "internalType": "bool",
          "name": "",
          "type": "bool"
        },
        {
          "internalType": "uint256",
          "name": "",
          "type": "uint256"
        },
        {
          "internalType": "string",
          "name": "",
          "type": "string"
        }
      ],
      "stateMutability": "view",
      "type": "function",
      "constant": true
    },
    {
      "inputs": [],
      "name": "getAllNIKs",
      "outputs": [
        {
          "internalType": "string[]",
          "name": "",
          "type": "string[]"
        }
      ],
      "stateMutability": "view",
      "type": "function",
      "constant": true
    },
    {
      "inputs": [],
      "name": "getVoterCount",
      "outputs": [
        {
          "internalType": "uint256",
          "name": "",
          "type": "uint256"
        }
      ],
      "stateMutability": "view",
      "type": "function",
      "constant": true
    }
  ],
  "bytecode": "0x608060405234801561001057600080fd5b50336000806101000a81548173ffffffffffffffffffffffffffffffffffffffff021916908373ffffffffffffffffffffffffffffffffffffffff160217905550611e3a806100606000396000f3fe608060405234801561001057600080fd5b50600436106100cf5760003560e01c806335b8e8201161008c578063a9a981a311610066578063a9a981a314610208578063c813d68a14610226578063c8a0f0c314610256578063e23cec7b14610274576100cf565b806335b8e8201461019a57806342169e48146101cc5780638da5cb5b146101ea576100cf565b80630721957f146100d457806311174a29146100f0578063241084751461010e5780632b37f53c1461012a5780632e6997fe1461014a5780633477ee2e14610168575b600080fd5b6100ee60048036038101906100e9919061116a565b610290565b005b6100f861045c565b604051610105919061185a565b60405180910390f35b61012860048036038101906101239190611228565b610466565b005b6101326107f8565b604051610141939291906116ba565b60405180910390f35b61015261091d565b60405161015f9190611698565b60405180910390f35b610182600480360381019061017d91906111ff565b610ade565b60405161019193929190611875565b60405180910390f35b6101b460048036038101906101af91906111ff565b610b90565b6040516101c393929190611875565b60405180910390f35b6101d4610ccb565b6040516101e1919061185a565b60405180910390f35b6101f2610cd1565b6040516101ff9190611632565b60405180910390f35b610210610cf5565b60405161021d919061185a565b60405180910390f35b610240600480360381019061023b91906111ff565b610cfb565b60405161024d91906116f8565b60405180910390f35b61025e610da7565b60405161026b9190611676565b60405180910390f35b61028e600480360381019061028991906111ab565b610e80565b005b60008054906101000a900473ffffffffffffffffffffffffffffffffffffffff1673ffffffffffffffffffffffffffffffffffffffff163373ffffffffffffffffffffffffffffffffffffffff161461031e576040517f08c379a00000000000000000000000000000000000000000000000000000000081526004016103159061175a565b60405180910390fd5b6000815111610362576040517f08c379a00000000000000000000000000000000000000000000000000000000081526004016103599061171a565b60405180910390fd5b600581604051610372919061161b565b908152602001604051809103902060009054906101000a900460ff16156103ce576040517f08c379a00000000000000000000000000000000000000000000000000000000081526004016103c5906117fa565b60405180910390fd5b60016005826040516103e0919061161b565b908152602001604051809103902060006101000a81548160ff021916908315150217905550600781908060018154018082558091505060019003906000526020600020016000909190919091509080519060200190610440929190611029565b506002600081548092919061045490611ad4565b919050555050565b6000600254905090565b60008054906101000a900473ffffffffffffffffffffffffffffffffffffffff1673ffffffffffffffffffffffffffffffffffffffff163373ffffffffffffffffffffffffffffffffffffffff1614156104f5576040517f08c379a00000000000000000000000000000000000000000000000000000000081526004016104ec906117ba565b60405180910390fd5b600460003373ffffffffffffffffffffffffffffffffffffffff1673ffffffffffffffffffffffffffffffffffffffff16815260200190815260200160002060000160009054906101000a900460ff1615610585576040517f08c379a000000000000000000000000000000000000000000000000000000000815260040161057c9061183a565b60405180910390fd5b80600581604051610596919061161b565b908152602001604051809103902060009054906101000a900460ff166105f1576040517f08c379a00000000000000000000000000000000000000000000000000000000081526004016105e89061179a565b60405180910390fd5b81600681604051610602919061161b565b908152602001604051809103902060009054906101000a900460ff161561065e576040517f08c379a0000000000000000000000000000000000000000000000000000000008152600401610655906117da565b60405180910390fd5b60008411801561067057506001548411155b6106af576040517f08c379a00000000000000000000000000000000000000000000000000000000081526004016106a69061181a565b60405180910390fd5b604051806060016040528060011515815260200185815260200184815250600460003373ffffffffffffffffffffffffffffffffffffffff1673ffffffffffffffffffffffffffffffffffffffff16815260200190815260200160002060008201518160000160006101000a81548160ff021916908315150217905550602082015181600101556040820151816002019080519060200190610752929190611029565b5090505060036000858152602001908152602001600020600201600081548092919061077d90611ad4565b91905055506001600684604051610794919061161b565b908152602001604051809103902060006101000a81548160ff0219169083151502179055507f4d99b957a2bc29a30ebd96a7be8e68fe50a3c701db28a91436490b7d53870ca433856040516107ea92919061164d565b60405180910390a150505050565b60008060606000600460003373ffffffffffffffffffffffffffffffffffffffff1673ffffffffffffffffffffffffffffffffffffffff1681526020019081526020016000206040518060600160405290816000820160009054906101000a900460ff161515151581526020016001820154815260200160028201805461087e90611a71565b80601f01602080910402602001604051908101604052809291908181526020018280546108aa90611a71565b80156108f75780601f106108cc576101008083540402835291602001916108f7565b820191906000526020600020905b8154815290600101906020018083116108da57829003601f168201915b505050505081525050905080600001518160200151826040015193509350935050909192565b6060600060015467ffffffffffffffff811115610963577f4e487b7100000000000000000000000000000000000000000000000000000000600052604160045260246000fd5b60405190808252806020026020018201604052801561099c57816020015b6109896110af565b8152602001906001900390816109815790505b5090506000600190505b6001548111610ad65760036000828152602001908152602001600020604051806060016040529081600082015481526020016001820180546109e790611a71565b80601f0160208091040260200160405190810160405280929190818152602001828054610a1390611a71565b8015610a605780601f10610a3557610100808354040283529160200191610a60565b820191906000526020600020905b815481529060010190602001808311610a4357829003601f168201915b5050505050815260200160028201548152505082600183610a8191906119b3565b81518110610ab8577f4e487b7100000000000000000000000000000000000000000000000000000000600052603260045260246000fd5b60200260200101819052508080610ace90611ad4565b9150506109a6565b508091505090565b6003602052806000526040600020600091509050806000015490806001018054610b0790611a71565b80601f0160208091040260200160405190810160405280929190818152602001828054610b3390611a71565b8015610b805780601f10610b5557610100808354040283529160200191610b80565b820191906000526020600020905b815481529060010190602001808311610b6357829003601f168201915b5050505050908060020154905083565b6000606060008084118015610ba757506001548411155b610be6576040517f08c379a0000000000000000000000000000000000000000000000000000000008152600401610bdd9061181a565b60405180910390fd5b60006003600086815260200190815260200160002060405180606001604052908160008201548152602001600182018054610c2090611a71565b80601f0160208091040260200160405190810160405280929190818152602001828054610c4c90611a71565b8015610c995780601f10610c6e57610100808354040283529160200191610c99565b820191906000526020600020905b815481529060010190602001808311610c7c57829003601f168201915b505050505081526020016002820154815250509050806000015181602001518260400151935093509350509193909250565b60025481565b60008054906101000a900473ffffffffffffffffffffffffffffffffffffffff1681565b60015481565b60078181548110610d0b57600080fd5b906000526020600020016000915090508054610d2690611a71565b80601f0160208091040260200160405190810160405280929190818152602001828054610d5290611a71565b8015610d9f5780601f10610d7457610100808354040283529160200191610d9f565b820191906000526020600020905b815481529060010190602001808311610d8257829003601f168201915b505050505081565b60606007805480602002602001604051908101604052809291908181526020016000905b82821015610e77578382906000526020600020018054610dea90611a71565b80601f0160208091040260200160405190810160405280929190818152602001828054610e1690611a71565b8015610e635780601f10610e3857610100808354040283529160200191610e63565b820191906000526020600020905b815481529060010190602001808311610e4657829003601f168201915b505050505081526020019060010190610dcb565b50505050905090565b60008054906101000a900473ffffffffffffffffffffffffffffffffffffffff1673ffffffffffffffffffffffffffffffffffffffff163373ffffffffffffffffffffffffffffffffffffffff1614610f0e576040517f08c379a0000000000000000000000000000000000000000000000000000000008152600401610f059061175a565b60405180910390fd5b60008111610f51576040517f08c379a0000000000000000000000000000000000000000000000000000000008152600401610f489061173a565b60405180910390fd5b6000600360008381526020019081526020016000206000015414610faa576040517f08c379a0000000000000000000000000000000000000000000000000000000008152600401610fa19061177a565b60405180910390fd5b60016000815480929190610fbd90611ad4565b91905055506040518060600160405280828152602001838152602001600081525060036000838152602001908152602001600020600082015181600001556020820151816001019080519060200190611017929190611029565b50604082015181600201559050505050565b82805461103590611a71565b90600052602060002090601f016020900481019282611057576000855561109e565b82601f1061107057805160ff191683800117855561109e565b8280016001018555821561109e579182015b8281111561109d578251825591602001919060010190611082565b5b5090506110ab91906110d0565b5090565b60405180606001604052806000815260200160608152602001600081525090565b5b808211156110e95760008160009055506001016110d1565b5090565b60006111006110fb846118d8565b6118b3565b90508281526020810184848401111561111857600080fd5b611123848285611a2f565b509392505050565b600082601f83011261113c57600080fd5b813561114c8482602086016110ed565b91505092915050565b60008135905061116481611ded565b92915050565b60006020828403121561117c57600080fd5b600082013567ffffffffffffffff81111561119657600080fd5b6111a28482850161112b565b91505092915050565b600080604083850312156111be57600080fd5b600083013567ffffffffffffffff8111156111d857600080fd5b6111e48582860161112b565b92505060206111f585828601611155565b9150509250929050565b60006020828403121561121157600080fd5b600061121f84828501611155565b91505092915050565b6000806040838503121561123b57600080fd5b600061124985828601611155565b925050602083013567ffffffffffffffff81111561126657600080fd5b6112728582860161112b565b9150509250929050565b600061128883836113ac565b905092915050565b600061129c83836115ad565b905092915050565b6112ad816119e7565b82525050565b60006112be82611929565b6112c88185611964565b9350836020820285016112da85611909565b8060005b8581101561131657848403895281516112f7858261127c565b94506113028361194a565b925060208a019950506001810190506112de565b50829750879550505050505092915050565b600061133382611934565b61133d8185611975565b93508360208202850161134f85611919565b8060005b8581101561138b578484038952815161136c8582611290565b945061137783611957565b925060208a01995050600181019050611353565b50829750879550505050505092915050565b6113a6816119f9565b82525050565b60006113b78261193f565b6113c18185611986565b93506113d1818560208601611a3e565b6113da81611baa565b840191505092915050565b60006113f08261193f565b6113fa8185611997565b935061140a818560208601611a3e565b61141381611baa565b840191505092915050565b60006114298261193f565b61143381856119a8565b9350611443818560208601611a3e565b80840191505092915050565b600061145c600f83611997565b915061146782611bbb565b602082019050919050565b600061147f602683611997565b915061148a82611be4565b604082019050919050565b60006114a2602183611997565b91506114ad82611c33565b604082019050919050565b60006114c5602583611997565b91506114d082611c82565b604082019050919050565b60006114e8601583611997565b91506114f382611cd1565b602082019050919050565b600061150b601183611997565b915061151682611cfa565b602082019050919050565b600061152e602183611997565b915061153982611d23565b604082019050919050565b6000611551601983611997565b915061155c82611d72565b602082019050919050565b6000611574601483611997565b915061157f82611d9b565b602082019050919050565b6000611597601683611997565b91506115a282611dc4565b602082019050919050565b60006060830160008301516115c560008601826115fd565b50602083015184820360208601526115dd82826113ac565b91505060408301516115f260408601826115fd565b508091505092915050565b61160681611a25565b82525050565b61161581611a25565b82525050565b6000611627828461141e565b915081905092915050565b600060208201905061164760008301846112a4565b92915050565b600060408201905061166260008301856112a4565b61166f602083018461160c565b9392505050565b6000602082019050818103600083015261169081846112b3565b905092915050565b600060208201905081810360008301526116b28184611328565b905092915050565b60006060820190506116cf600083018661139d565b6116dc602083018561160c565b81810360408301526116ee81846113e5565b9050949350505050565b6000602082019050818103600083015261171281846113e5565b905092915050565b600060208201905081810360008301526117338161144f565b9050919050565b6000602082019050818103600083015261175381611472565b9050919050565b6000602082019050818103600083015261177381611495565b9050919050565b60006020820190508181036000830152611793816114b8565b9050919050565b600060208201905081810360008301526117b3816114db565b9050919050565b600060208201905081810360008301526117d3816114fe565b9050919050565b600060208201905081810360008301526117f381611521565b9050919050565b6000602082019050818103600083015261181381611544565b9050919050565b6000602082019050818103600083015261183381611567565b9050919050565b600060208201905081810360008301526118538161158a565b9050919050565b600060208201905061186f600083018461160c565b92915050565b600060608201905061188a600083018661160c565b818103602083015261189c81856113e5565b90506118ab604083018461160c565b949350505050565b60006118bd6118ce565b90506118c98282611aa3565b919050565b6000604051905090565b600067ffffffffffffffff8211156118f3576118f2611b7b565b5b6118fc82611baa565b9050602081019050919050565b6000819050602082019050919050565b6000819050602082019050919050565b600081519050919050565b600081519050919050565b600081519050919050565b6000602082019050919050565b6000602082019050919050565b600082825260208201905092915050565b600082825260208201905092915050565b600082825260208201905092915050565b600082825260208201905092915050565b600081905092915050565b60006119be82611a25565b91506119c983611a25565b9250828210156119dc576119db611b1d565b5b828203905092915050565b60006119f282611a05565b9050919050565b60008115159050919050565b600073ffffffffffffffffffffffffffffffffffffffff82169050919050565b6000819050919050565b82818337600083830152505050565b60005b83811015611a5c578082015181840152602081019050611a41565b83811115611a6b576000848401525b50505050565b60006002820490506001821680611a8957607f821691505b60208210811415611a9d57611a9c611b4c565b5b50919050565b611aac82611baa565b810181811067ffffffffffffffff82111715611acb57611aca611b7b565b5b80604052505050565b6000611adf82611a25565b91507fffffffffffffffffffffffffffffffffffffffffffffffffffffffffffffffff821415611b1257611b11611b1d565b5b600182019050919050565b7f4e487b7100000000000000000000000000000000000000000000000000000000600052601160045260246000fd5b7f4e487b7100000000000000000000000000000000000000000000000000000000600052602260045260246000fd5b7f4e487b7100000000000000000000000000000000000000000000000000000000600052604160045260246000fd5b6000601f19601f8301169050919050565b7f4e494b2069732072657175697265640000000000000000000000000000000000600082015250565b7f43616e646964617465204944206d75737420626520677265617465722074686160008201527f6e207a65726f0000000000000000000000000000000000000000000000000000602082015250565b7f4f6e6c79206f776e65722063616e2063616c6c20746869732066756e6374696f60008201527f6e00000000000000000000000000000000000000000000000000000000000000602082015250565b7f43616e6469646174652077697468207468697320494420616c7265616479206560008201527f7869737473000000000000000000000000000000000000000000000000000000602082015250565b7f4e494b206973206e6f7420726567697374657265640000000000000000000000600082015250565b7f4f776e65722063616e6e6f7420766f7465000000000000000000000000000000600082015250565b7f4e494b2068617320616c7265616479206265656e207573656420746f20766f7460008201527f6500000000000000000000000000000000000000000000000000000000000000602082015250565b7f4e494b20697320616c7265616479207265676973746572656400000000000000600082015250565b7f496e76616c69642063616e646964617465204944000000000000000000000000600082015250565b7f596f75206861766520616c726561647920766f74656400000000000000000000600082015250565b611df681611a25565b8114611e0157600080fd5b5056fea264697066735822122087a1956b332c81719d4c79ed6cdd314d52421ef6b1f44b0944ecf363ae9bb4d164736f6c63430008040033",
  "immutableReferences": {},
  "source": "// SPDX-License-Identifier: MIT\r\npragma solidity ^0.8.4;\r\n\r\ncontract VotingSystem {\r\n    struct Candidate {\r\n        uint256 id;\r\n        string name;\r\n        uint256 voteCount;\r\n    }\r\n\r\n    struct Voter {\r\n        bool hasVoted;\r\n        uint256 candidateId;\r\n        string NIK;\r\n    }\r\n\r\n    address public owner;\r\n    uint256 public candidateCount;\r\n    uint256 public voterCount;\r\n    mapping(uint256 => Candidate) public candidates;\r\n    mapping(address => Voter) private voters;\r\n    mapping(string => bool) private registeredNIKs;\r\n    mapping(string => bool) private usedNIKs;\r\n    string[] public NIKs;\r\n\r\n    event Voted(address voter, uint256 candidateId);\r\n\r\n    modifier onlyOwner() {\r\n        require(msg.sender == owner, \"Only owner can call this function\");\r\n        _;\r\n    }\r\n\r\n    modifier notOwner() {\r\n        require(msg.sender != owner, \"Owner cannot vote\");\r\n        _;\r\n    }\r\n\r\n    modifier hasNotVoted() {\r\n        require(!voters[msg.sender].hasVoted, \"You have already voted\");\r\n        _;\r\n    }\r\n\r\n    modifier validNIK(string memory _NIK) {\r\n        require(registeredNIKs[_NIK], \"NIK is not registered\");\r\n\r\n        _;\r\n    }\r\n\r\n    modifier hasUsedNIK(string memory _NIK) {\r\n        require(!usedNIKs[_NIK],\r\n            \"NIK has already been used to vote\"\r\n        );\r\n        _;\r\n    }\r\n\r\n    constructor() {\r\n        owner = msg.sender;\r\n    }\r\n\r\n    function addCandidate(string memory _name, uint256 _candidateId)\r\n        public\r\n        onlyOwner\r\n    {\r\n        require(_candidateId > 0, \"Candidate ID must be greater than zero\");\r\n        require(\r\n            candidates[_candidateId].id == 0,\r\n            \"Candidate with this ID already exists\"\r\n        );\r\n\r\n        candidateCount++;\r\n        candidates[_candidateId] = Candidate(_candidateId, _name, 0);\r\n    }\r\n\r\n    function addNIK(string memory _NIK) public onlyOwner {\r\n        require(bytes(_NIK).length > 0, \"NIK is required\");\r\n        require(!registeredNIKs[_NIK], \"NIK is already registered\");\r\n        registeredNIKs[_NIK] = true;\r\n        NIKs.push(_NIK);\r\n        voterCount++;\r\n    }\r\n\r\n    function vote(uint256 _candidateId, string memory _NIK)\r\n        public\r\n        notOwner\r\n        hasNotVoted\r\n        validNIK(_NIK)\r\n        hasUsedNIK(_NIK)\r\n    {\r\n        require(\r\n            _candidateId > 0 && _candidateId <= candidateCount,\r\n            \"Invalid candidate ID\"\r\n        );\r\n\r\n        voters[msg.sender] = Voter({\r\n            hasVoted: true,\r\n            candidateId: _candidateId,\r\n            NIK: _NIK\r\n        });\r\n\r\n        candidates[_candidateId].voteCount++;\r\n        usedNIKs[_NIK] = true;\r\n\r\n        emit Voted(msg.sender, _candidateId);\r\n    }\r\n\r\n    function getCandidate(uint256 _candidateId)\r\n        public\r\n        view\r\n        returns (\r\n            uint256,\r\n            string memory,\r\n            uint256\r\n        )\r\n    {\r\n        require(\r\n            _candidateId > 0 && _candidateId <= candidateCount,\r\n            \"Invalid candidate ID\"\r\n        );\r\n        Candidate memory candidate = candidates[_candidateId];\r\n        return (candidate.id, candidate.name, candidate.voteCount);\r\n    }\r\n\r\n    function getAllCandidates() public view returns (Candidate[] memory) {\r\n        Candidate[] memory candidateList = new Candidate[](candidateCount);\r\n        for (uint256 i = 1; i <= candidateCount; i++) {\r\n            candidateList[i - 1] = candidates[i];\r\n        }\r\n        return candidateList;\r\n    }\r\n\r\n    function getVoter()\r\n        public\r\n        view\r\n        returns (\r\n            bool,\r\n            uint256,\r\n            string memory\r\n        ) \r\n    {\r\n        Voter memory voter = voters[msg.sender];\r\n        return (voter.hasVoted, voter.candidateId, voter.NIK);\r\n    }\r\n\r\n    function getAllNIKs() public view returns (string[] memory) {\r\n        return NIKs;\r\n    }\r\n\r\n    function getVoterCount() public view returns (uint256) {\r\n        return voterCount;\r\n    }\r\n}\r\n",
  "sourcePath": "F:\\1Project\\suaradesamu\\truffle\\contracts\\VotingSystem.sol",
  "compiler": {
    "name": "solc",
    "version": "0.8.4+commit.c7e474f2.Emscripten.clang"
  },
  "schemaVersion": "3.4.16",
  "updatedAt": "2024-06-22T12:59:02.690Z",
  "networkType": "ethereum",
  "devdoc": {
    "kind": "dev",
    "methods": {},
    "version": 1
  },
  "userdoc": {
    "kind": "user",
    "methods": {},
    "version": 1
  }
}